{
  "_format": "hh-sol-artifact-1",
  "contractName": "TodoContract",
  "sourceName": "contracts/ToDoContract.sol",
  "abi": [
    {
      "inputs": [
        {
          "internalType": "address",
          "name": "_token",
          "type": "address"
        }
      ],
      "stateMutability": "nonpayable",
      "type": "constructor"
    },
    {
      "anonymous": false,
      "inputs": [
        {
          "indexed": false,
          "internalType": "uint256",
          "name": "id",
          "type": "uint256"
        },
        {
          "indexed": false,
          "internalType": "string",
          "name": "description",
          "type": "string"
        }
      ],
      "name": "TaskCreated",
      "type": "event"
    },
    {
      "anonymous": false,
      "inputs": [
        {
          "indexed": false,
          "internalType": "uint256",
          "name": "id",
          "type": "uint256"
        },
        {
          "indexed": false,
          "internalType": "address",
          "name": "user",
          "type": "address"
        }
      ],
      "name": "TaskMarkedCompleted",
      "type": "event"
    },
    {
      "anonymous": false,
      "inputs": [
        {
          "indexed": false,
          "internalType": "uint256",
          "name": "id",
          "type": "uint256"
        },
        {
          "indexed": false,
          "internalType": "address",
          "name": "user",
          "type": "address"
        },
        {
          "indexed": false,
          "internalType": "uint256",
          "name": "reward",
          "type": "uint256"
        }
      ],
      "name": "TaskVerified",
      "type": "event"
    },
    {
      "inputs": [
        {
          "internalType": "address",
          "name": "newAdmin",
          "type": "address"
        }
      ],
      "name": "addAdmin",
      "outputs": [],
      "stateMutability": "nonpayable",
      "type": "function"
    },
    {
      "inputs": [
        {
          "internalType": "address",
          "name": "",
          "type": "address"
        }
      ],
      "name": "admins",
      "outputs": [
        {
          "internalType": "bool",
          "name": "",
          "type": "bool"
        }
      ],
      "stateMutability": "view",
      "type": "function"
    },
    {
      "inputs": [
        {
          "internalType": "string",
          "name": "description",
          "type": "string"
        }
      ],
      "name": "createTask",
      "outputs": [],
      "stateMutability": "nonpayable",
      "type": "function"
    },
    {
      "inputs": [],
      "name": "getUsers",
      "outputs": [
        {
          "internalType": "address[]",
          "name": "",
          "type": "address[]"
        }
      ],
      "stateMutability": "view",
      "type": "function"
    },
    {
      "inputs": [
        {
          "internalType": "uint256",
          "name": "taskId",
          "type": "uint256"
        }
      ],
      "name": "markTaskCompleted",
      "outputs": [],
      "stateMutability": "nonpayable",
      "type": "function"
    },
    {
      "inputs": [],
      "name": "owner",
      "outputs": [
        {
          "internalType": "address",
          "name": "",
          "type": "address"
        }
      ],
      "stateMutability": "view",
      "type": "function"
    },
    {
      "inputs": [],
      "name": "taskCounter",
      "outputs": [
        {
          "internalType": "uint256",
          "name": "",
          "type": "uint256"
        }
      ],
      "stateMutability": "view",
      "type": "function"
    },
    {
      "inputs": [
        {
          "internalType": "uint256",
          "name": "",
          "type": "uint256"
        }
      ],
      "name": "tasks",
      "outputs": [
        {
          "internalType": "uint256",
          "name": "id",
          "type": "uint256"
        },
        {
          "internalType": "string",
          "name": "description",
          "type": "string"
        },
        {
          "internalType": "bool",
          "name": "isCompleted",
          "type": "bool"
        },
        {
          "internalType": "address",
          "name": "completedBy",
          "type": "address"
        },
        {
          "internalType": "bool",
          "name": "isVerified",
          "type": "bool"
        }
      ],
      "stateMutability": "view",
      "type": "function"
    },
    {
      "inputs": [],
      "name": "token",
      "outputs": [
        {
          "internalType": "contract TodoToken",
          "name": "",
          "type": "address"
        }
      ],
      "stateMutability": "view",
      "type": "function"
    },
    {
      "inputs": [
        {
          "internalType": "uint256",
          "name": "",
          "type": "uint256"
        }
      ],
      "name": "users",
      "outputs": [
        {
          "internalType": "address",
          "name": "",
          "type": "address"
        }
      ],
      "stateMutability": "view",
      "type": "function"
    },
    {
      "inputs": [
        {
          "internalType": "uint256",
          "name": "taskId",
          "type": "uint256"
        }
      ],
      "name": "verifyTask",
      "outputs": [],
      "stateMutability": "nonpayable",
      "type": "function"
    }
  ],
  "bytecode": "0x60806040523480156200001157600080fd5b50604051620019fe380380620019fe833981810160405281019062000037919062000181565b806000806101000a81548173ffffffffffffffffffffffffffffffffffffffff021916908373ffffffffffffffffffffffffffffffffffffffff16021790555033600160006101000a81548173ffffffffffffffffffffffffffffffffffffffff021916908373ffffffffffffffffffffffffffffffffffffffff1602179055506001600360003373ffffffffffffffffffffffffffffffffffffffff1673ffffffffffffffffffffffffffffffffffffffff16815260200190815260200160002060006101000a81548160ff02191690831515021790555050620001b3565b600080fd5b600073ffffffffffffffffffffffffffffffffffffffff82169050919050565b600062000149826200011c565b9050919050565b6200015b816200013c565b81146200016757600080fd5b50565b6000815190506200017b8162000150565b92915050565b6000602082840312156200019a576200019962000117565b5b6000620001aa848285016200016a565b91505092915050565b61183b80620001c36000396000f3fe608060405234801561001057600080fd5b50600436106100a75760003560e01c80635573e3ef116100715780635573e3ef14610162578063586717301461017e578063704802751461019c5780638d977672146101b85780638da5cb5b146101ec578063fc0c546a1461020a576100a7565b80620b2bda146100ac578062ce8e3e146100c8578063111002aa146100e6578063365b98b214610102578063429b62e514610132575b600080fd5b6100c660048036038101906100c19190610cb2565b610228565b005b6100d0610432565b6040516100dd9190610dcf565b60405180910390f35b61010060048036038101906100fb9190610f37565b6104c0565b005b61011c60048036038101906101179190610cb2565b6106a7565b6040516101299190610f8f565b60405180910390f35b61014c60048036038101906101479190610fd6565b6106e6565b604051610159919061101e565b60405180910390f35b61017c60048036038101906101779190610cb2565b610706565b005b61018661098b565b6040516101939190611048565b60405180910390f35b6101b660048036038101906101b19190610fd6565b610991565b005b6101d260048036038101906101cd9190610cb2565b610a78565b6040516101e39594939291906110e2565b60405180910390f35b6101f4610b70565b6040516102019190610f8f565b60405180910390f35b610212610b96565b60405161021f919061119b565b60405180910390f35b60006004600083815260200190815260200160002090508060020160009054906101000a900460ff1615610291576040517f08c379a000000000000000000000000000000000000000000000000000000000815260040161028890611202565b60405180910390fd5b600073ffffffffffffffffffffffffffffffffffffffff168160020160019054906101000a900473ffffffffffffffffffffffffffffffffffffffff1673ffffffffffffffffffffffffffffffffffffffff1614610324576040517f08c379a000000000000000000000000000000000000000000000000000000000815260040161031b9061126e565b60405180910390fd5b338160020160016101000a81548173ffffffffffffffffffffffffffffffffffffffff021916908373ffffffffffffffffffffffffffffffffffffffff16021790555060018160020160006101000a81548160ff02191690831515021790555061038d33610bba565b6103f5576005339080600181540180825580915050600190039060005260206000200160009091909190916101000a81548173ffffffffffffffffffffffffffffffffffffffff021916908373ffffffffffffffffffffffffffffffffffffffff1602179055505b7f9eef289080cc552d724b3a62d49a1d7aa378fd18baba00bbfbd691ad0c1810b6823360405161042692919061128e565b60405180910390a15050565b606060058054806020026020016040519081016040528092919081815260200182805480156104b657602002820191906000526020600020905b8160009054906101000a900473ffffffffffffffffffffffffffffffffffffffff1673ffffffffffffffffffffffffffffffffffffffff168152602001906001019080831161046c575b5050505050905090565b600360003373ffffffffffffffffffffffffffffffffffffffff1673ffffffffffffffffffffffffffffffffffffffff16815260200190815260200160002060009054906101000a900460ff1661054c576040517f08c379a000000000000000000000000000000000000000000000000000000000815260040161054390611303565b60405180910390fd5b6002600081548092919061055f90611352565b91905055506040518060a001604052806002548152602001828152602001600015158152602001600073ffffffffffffffffffffffffffffffffffffffff168152602001600015158152506004600060025481526020019081526020016000206000820151816000015560208201518160010190816105de919061159c565b5060408201518160020160006101000a81548160ff02191690831515021790555060608201518160020160016101000a81548173ffffffffffffffffffffffffffffffffffffffff021916908373ffffffffffffffffffffffffffffffffffffffff16021790555060808201518160020160156101000a81548160ff0219169083151502179055509050507fa5ed9e6226c584326505694539c95cb0e3238ae09bcda5a65c00bbfdab1c66626002548260405161069c92919061166e565b60405180910390a150565b600581815481106106b757600080fd5b906000526020600020016000915054906101000a900473ffffffffffffffffffffffffffffffffffffffff1681565b60036020528060005260406000206000915054906101000a900460ff1681565b600360003373ffffffffffffffffffffffffffffffffffffffff1673ffffffffffffffffffffffffffffffffffffffff16815260200190815260200160002060009054906101000a900460ff16610792576040517f08c379a000000000000000000000000000000000000000000000000000000000815260040161078990611303565b60405180910390fd5b60006004600083815260200190815260200160002090508060020160009054906101000a900460ff166107fa576040517f08c379a00000000000000000000000000000000000000000000000000000000081526004016107f1906116ea565b60405180910390fd5b8060020160159054906101000a900460ff161561084c576040517f08c379a000000000000000000000000000000000000000000000000000000000815260040161084390611756565b60405180910390fd5b60018160020160156101000a81548160ff0219169083151502179055506000678ac7230489e80000905060008054906101000a900473ffffffffffffffffffffffffffffffffffffffff1673ffffffffffffffffffffffffffffffffffffffff166340c10f198360020160019054906101000a900473ffffffffffffffffffffffffffffffffffffffff16836040518363ffffffff1660e01b81526004016108f5929190611776565b600060405180830381600087803b15801561090f57600080fd5b505af1158015610923573d6000803e3d6000fd5b505050507f477d9dbad436f899729571bd347ca39a0d163bbc0870482ce5e298e4145d4251838360020160019054906101000a900473ffffffffffffffffffffffffffffffffffffffff168360405161097e9392919061179f565b60405180910390a1505050565b60025481565b600360003373ffffffffffffffffffffffffffffffffffffffff1673ffffffffffffffffffffffffffffffffffffffff16815260200190815260200160002060009054906101000a900460ff16610a1d576040517f08c379a0000000000000000000000000000000000000000000000000000000008152600401610a1490611303565b60405180910390fd5b6001600360008373ffffffffffffffffffffffffffffffffffffffff1673ffffffffffffffffffffffffffffffffffffffff16815260200190815260200160002060006101000a81548160ff02191690831515021790555050565b6004602052806000526040600020600091509050806000015490806001018054610aa1906113c9565b80601f0160208091040260200160405190810160405280929190818152602001828054610acd906113c9565b8015610b1a5780601f10610aef57610100808354040283529160200191610b1a565b820191906000526020600020905b815481529060010190602001808311610afd57829003601f168201915b5050505050908060020160009054906101000a900460ff16908060020160019054906101000a900473ffffffffffffffffffffffffffffffffffffffff16908060020160159054906101000a900460ff16905085565b600160009054906101000a900473ffffffffffffffffffffffffffffffffffffffff1681565b60008054906101000a900473ffffffffffffffffffffffffffffffffffffffff1681565b600080600090505b600580549050811015610c5d578273ffffffffffffffffffffffffffffffffffffffff1660058281548110610bfa57610bf96117d6565b5b9060005260206000200160009054906101000a900473ffffffffffffffffffffffffffffffffffffffff1673ffffffffffffffffffffffffffffffffffffffff1603610c4a576001915050610c63565b8080610c5590611352565b915050610bc2565b50600090505b919050565b6000604051905090565b600080fd5b600080fd5b6000819050919050565b610c8f81610c7c565b8114610c9a57600080fd5b50565b600081359050610cac81610c86565b92915050565b600060208284031215610cc857610cc7610c72565b5b6000610cd684828501610c9d565b91505092915050565b600081519050919050565b600082825260208201905092915050565b6000819050602082019050919050565b600073ffffffffffffffffffffffffffffffffffffffff82169050919050565b6000610d3682610d0b565b9050919050565b610d4681610d2b565b82525050565b6000610d588383610d3d565b60208301905092915050565b6000602082019050919050565b6000610d7c82610cdf565b610d868185610cea565b9350610d9183610cfb565b8060005b83811015610dc2578151610da98882610d4c565b9750610db483610d64565b925050600181019050610d95565b5085935050505092915050565b60006020820190508181036000830152610de98184610d71565b905092915050565b600080fd5b600080fd5b6000601f19601f8301169050919050565b7f4e487b7100000000000000000000000000000000000000000000000000000000600052604160045260246000fd5b610e4482610dfb565b810181811067ffffffffffffffff82111715610e6357610e62610e0c565b5b80604052505050565b6000610e76610c68565b9050610e828282610e3b565b919050565b600067ffffffffffffffff821115610ea257610ea1610e0c565b5b610eab82610dfb565b9050602081019050919050565b82818337600083830152505050565b6000610eda610ed584610e87565b610e6c565b905082815260208101848484011115610ef657610ef5610df6565b5b610f01848285610eb8565b509392505050565b600082601f830112610f1e57610f1d610df1565b5b8135610f2e848260208601610ec7565b91505092915050565b600060208284031215610f4d57610f4c610c72565b5b600082013567ffffffffffffffff811115610f6b57610f6a610c77565b5b610f7784828501610f09565b91505092915050565b610f8981610d2b565b82525050565b6000602082019050610fa46000830184610f80565b92915050565b610fb381610d2b565b8114610fbe57600080fd5b50565b600081359050610fd081610faa565b92915050565b600060208284031215610fec57610feb610c72565b5b6000610ffa84828501610fc1565b91505092915050565b60008115159050919050565b61101881611003565b82525050565b6000602082019050611033600083018461100f565b92915050565b61104281610c7c565b82525050565b600060208201905061105d6000830184611039565b92915050565b600081519050919050565b600082825260208201905092915050565b60005b8381101561109d578082015181840152602081019050611082565b60008484015250505050565b60006110b482611063565b6110be818561106e565b93506110ce81856020860161107f565b6110d781610dfb565b840191505092915050565b600060a0820190506110f76000830188611039565b818103602083015261110981876110a9565b9050611118604083018661100f565b6111256060830185610f80565b611132608083018461100f565b9695505050505050565b6000819050919050565b600061116161115c61115784610d0b565b61113c565b610d0b565b9050919050565b600061117382611146565b9050919050565b600061118582611168565b9050919050565b6111958161117a565b82525050565b60006020820190506111b0600083018461118c565b92915050565b7f416c7265616479206d61726b656420636f6d706c657465640000000000000000600082015250565b60006111ec60188361106e565b91506111f7826111b6565b602082019050919050565b6000602082019050818103600083015261121b816111df565b9050919050565b7f416c7265616479207375626d6974746564000000000000000000000000000000600082015250565b600061125860118361106e565b915061126382611222565b602082019050919050565b600060208201905081810360008301526112878161124b565b9050919050565b60006040820190506112a36000830185611039565b6112b06020830184610f80565b9392505050565b7f4e6f7420616e2061646d696e0000000000000000000000000000000000000000600082015250565b60006112ed600c8361106e565b91506112f8826112b7565b602082019050919050565b6000602082019050818103600083015261131c816112e0565b9050919050565b7f4e487b7100000000000000000000000000000000000000000000000000000000600052601160045260246000fd5b600061135d82610c7c565b91507fffffffffffffffffffffffffffffffffffffffffffffffffffffffffffffffff820361138f5761138e611323565b5b600182019050919050565b7f4e487b7100000000000000000000000000000000000000000000000000000000600052602260045260246000fd5b600060028204905060018216806113e157607f821691505b6020821081036113f4576113f361139a565b5b50919050565b60008190508160005260206000209050919050565b60006020601f8301049050919050565b600082821b905092915050565b60006008830261145c7fffffffffffffffffffffffffffffffffffffffffffffffffffffffffffffffff8261141f565b611466868361141f565b95508019841693508086168417925050509392505050565b600061149961149461148f84610c7c565b61113c565b610c7c565b9050919050565b6000819050919050565b6114b38361147e565b6114c76114bf826114a0565b84845461142c565b825550505050565b600090565b6114dc6114cf565b6114e78184846114aa565b505050565b5b8181101561150b576115006000826114d4565b6001810190506114ed565b5050565b601f82111561155057611521816113fa565b61152a8461140f565b81016020851015611539578190505b61154d6115458561140f565b8301826114ec565b50505b505050565b600082821c905092915050565b600061157360001984600802611555565b1980831691505092915050565b600061158c8383611562565b9150826002028217905092915050565b6115a582611063565b67ffffffffffffffff8111156115be576115bd610e0c565b5b6115c882546113c9565b6115d382828561150f565b600060209050601f83116001811461160657600084156115f4578287015190505b6115fe8582611580565b865550611666565b601f198416611614866113fa565b60005b8281101561163c57848901518255600182019150602085019450602081019050611617565b868310156116595784890151611655601f891682611562565b8355505b6001600288020188555050505b505050505050565b60006040820190506116836000830185611039565b818103602083015261169581846110a9565b90509392505050565b7f5461736b206e6f742079657420636f6d706c6574656400000000000000000000600082015250565b60006116d460168361106e565b91506116df8261169e565b602082019050919050565b60006020820190508181036000830152611703816116c7565b9050919050565b7f416c726561647920766572696669656400000000000000000000000000000000600082015250565b600061174060108361106e565b915061174b8261170a565b602082019050919050565b6000602082019050818103600083015261176f81611733565b9050919050565b600060408201905061178b6000830185610f80565b6117986020830184611039565b9392505050565b60006060820190506117b46000830186611039565b6117c16020830185610f80565b6117ce6040830184611039565b949350505050565b7f4e487b7100000000000000000000000000000000000000000000000000000000600052603260045260246000fdfea26469706673582212200e084e4de5c7827082ec9da9e28c46477c1013eedf59aa9fa6eea99e70342fb964736f6c63430008140033",
  "linkReferences": {},
  "deployedLinkReferences": {}
}