{
  "_format": "hh-sol-artifact-1",
  "contractName": "TodoContract",
  "sourceName": "contracts/ToDoContract.sol",
  "abi": [
    {
      "inputs": [
        {
          "internalType": "address",
          "name": "_token",
          "type": "address"
        }
      ],
      "stateMutability": "nonpayable",
      "type": "constructor"
    },
    {
      "anonymous": false,
      "inputs": [
        {
          "indexed": false,
          "internalType": "uint256",
          "name": "id",
          "type": "uint256"
        },
        {
          "indexed": false,
          "internalType": "address",
          "name": "user",
          "type": "address"
        },
        {
          "indexed": false,
          "internalType": "uint256",
          "name": "reward",
          "type": "uint256"
        }
      ],
      "name": "TaskCompleted",
      "type": "event"
    },
    {
      "anonymous": false,
      "inputs": [
        {
          "indexed": false,
          "internalType": "uint256",
          "name": "id",
          "type": "uint256"
        },
        {
          "indexed": false,
          "internalType": "string",
          "name": "description",
          "type": "string"
        }
      ],
      "name": "TaskCreated",
      "type": "event"
    },
    {
      "inputs": [
        {
          "internalType": "address",
          "name": "newAdmin",
          "type": "address"
        }
      ],
      "name": "addAdmin",
      "outputs": [],
      "stateMutability": "nonpayable",
      "type": "function"
    },
    {
      "inputs": [
        {
          "internalType": "address",
          "name": "",
          "type": "address"
        }
      ],
      "name": "admins",
      "outputs": [
        {
          "internalType": "bool",
          "name": "",
          "type": "bool"
        }
      ],
      "stateMutability": "view",
      "type": "function"
    },
    {
      "inputs": [
        {
          "internalType": "uint256",
          "name": "taskId",
          "type": "uint256"
        }
      ],
      "name": "completeTask",
      "outputs": [],
      "stateMutability": "nonpayable",
      "type": "function"
    },
    {
      "inputs": [
        {
          "internalType": "string",
          "name": "description",
          "type": "string"
        }
      ],
      "name": "createTask",
      "outputs": [],
      "stateMutability": "nonpayable",
      "type": "function"
    },
    {
      "inputs": [],
      "name": "getUsers",
      "outputs": [
        {
          "internalType": "address[]",
          "name": "",
          "type": "address[]"
        }
      ],
      "stateMutability": "view",
      "type": "function"
    },
    {
      "inputs": [],
      "name": "owner",
      "outputs": [
        {
          "internalType": "address",
          "name": "",
          "type": "address"
        }
      ],
      "stateMutability": "view",
      "type": "function"
    },
    {
      "inputs": [],
      "name": "taskCounter",
      "outputs": [
        {
          "internalType": "uint256",
          "name": "",
          "type": "uint256"
        }
      ],
      "stateMutability": "view",
      "type": "function"
    },
    {
      "inputs": [
        {
          "internalType": "uint256",
          "name": "",
          "type": "uint256"
        }
      ],
      "name": "tasks",
      "outputs": [
        {
          "internalType": "uint256",
          "name": "id",
          "type": "uint256"
        },
        {
          "internalType": "string",
          "name": "description",
          "type": "string"
        },
        {
          "internalType": "bool",
          "name": "isCompleted",
          "type": "bool"
        },
        {
          "internalType": "address",
          "name": "completedBy",
          "type": "address"
        }
      ],
      "stateMutability": "view",
      "type": "function"
    },
    {
      "inputs": [],
      "name": "token",
      "outputs": [
        {
          "internalType": "contract TodoToken",
          "name": "",
          "type": "address"
        }
      ],
      "stateMutability": "view",
      "type": "function"
    },
    {
      "inputs": [
        {
          "internalType": "uint256",
          "name": "",
          "type": "uint256"
        }
      ],
      "name": "users",
      "outputs": [
        {
          "internalType": "address",
          "name": "",
          "type": "address"
        }
      ],
      "stateMutability": "view",
      "type": "function"
    }
  ],
  "bytecode": "0x60806040523480156200001157600080fd5b50604051620015a5380380620015a5833981810160405281019062000037919062000181565b806000806101000a81548173ffffffffffffffffffffffffffffffffffffffff021916908373ffffffffffffffffffffffffffffffffffffffff16021790555033600160006101000a81548173ffffffffffffffffffffffffffffffffffffffff021916908373ffffffffffffffffffffffffffffffffffffffff1602179055506001600360003373ffffffffffffffffffffffffffffffffffffffff1673ffffffffffffffffffffffffffffffffffffffff16815260200190815260200160002060006101000a81548160ff02191690831515021790555050620001b3565b600080fd5b600073ffffffffffffffffffffffffffffffffffffffff82169050919050565b600062000149826200011c565b9050919050565b6200015b816200013c565b81146200016757600080fd5b50565b6000815190506200017b8162000150565b92915050565b6000602082840312156200019a576200019962000117565b5b6000620001aa848285016200016a565b91505092915050565b6113e280620001c36000396000f3fe608060405234801561001057600080fd5b506004361061009d5760003560e01c80637048027511610066578063704802751461015a5780638d977672146101765780638da5cb5b146101a9578063e1e29558146101c7578063fc0c546a146101e35761009d565b8062ce8e3e146100a2578063111002aa146100c0578063365b98b2146100dc578063429b62e51461010c578063586717301461013c575b600080fd5b6100aa610201565b6040516100b79190610a7a565b60405180910390f35b6100da60048036038101906100d59190610bf6565b61028f565b005b6100f660048036038101906100f19190610c75565b61044d565b6040516101039190610cb1565b60405180910390f35b61012660048036038101906101219190610cf8565b61048c565b6040516101339190610d40565b60405180910390f35b6101446104ac565b6040516101519190610d6a565b60405180910390f35b610174600480360381019061016f9190610cf8565b6104b2565b005b610190600480360381019061018b9190610c75565b610599565b6040516101a09493929190610e04565b60405180910390f35b6101b161067e565b6040516101be9190610cb1565b60405180910390f35b6101e160048036038101906101dc9190610c75565b6106a4565b005b6101eb6108b8565b6040516101f89190610eaf565b60405180910390f35b6060600580548060200260200160405190810160405280929190818152602001828054801561028557602002820191906000526020600020905b8160009054906101000a900473ffffffffffffffffffffffffffffffffffffffff1673ffffffffffffffffffffffffffffffffffffffff168152602001906001019080831161023b575b5050505050905090565b600360003373ffffffffffffffffffffffffffffffffffffffff1673ffffffffffffffffffffffffffffffffffffffff16815260200190815260200160002060009054906101000a900460ff1661031b576040517f08c379a000000000000000000000000000000000000000000000000000000000815260040161031290610f16565b60405180910390fd5b6002600081548092919061032e90610f65565b919050555060405180608001604052806002548152602001828152602001600015158152602001600073ffffffffffffffffffffffffffffffffffffffff168152506004600060025481526020019081526020016000206000820151816000015560208201518160010190816103a491906111af565b5060408201518160020160006101000a81548160ff02191690831515021790555060608201518160020160016101000a81548173ffffffffffffffffffffffffffffffffffffffff021916908373ffffffffffffffffffffffffffffffffffffffff1602179055509050507fa5ed9e6226c584326505694539c95cb0e3238ae09bcda5a65c00bbfdab1c666260025482604051610442929190611281565b60405180910390a150565b6005818154811061045d57600080fd5b906000526020600020016000915054906101000a900473ffffffffffffffffffffffffffffffffffffffff1681565b60036020528060005260406000206000915054906101000a900460ff1681565b60025481565b600360003373ffffffffffffffffffffffffffffffffffffffff1673ffffffffffffffffffffffffffffffffffffffff16815260200190815260200160002060009054906101000a900460ff1661053e576040517f08c379a000000000000000000000000000000000000000000000000000000000815260040161053590610f16565b60405180910390fd5b6001600360008373ffffffffffffffffffffffffffffffffffffffff1673ffffffffffffffffffffffffffffffffffffffff16815260200190815260200160002060006101000a81548160ff02191690831515021790555050565b60046020528060005260406000206000915090508060000154908060010180546105c290610fdc565b80601f01602080910402602001604051908101604052809291908181526020018280546105ee90610fdc565b801561063b5780601f106106105761010080835404028352916020019161063b565b820191906000526020600020905b81548152906001019060200180831161061e57829003601f168201915b5050505050908060020160009054906101000a900460ff16908060020160019054906101000a900473ffffffffffffffffffffffffffffffffffffffff16905084565b600160009054906101000a900473ffffffffffffffffffffffffffffffffffffffff1681565b60006004600083815260200190815260200160002090508060020160009054906101000a900460ff161561070d576040517f08c379a0000000000000000000000000000000000000000000000000000000008152600401610704906112fd565b60405180910390fd5b60018160020160006101000a81548160ff021916908315150217905550338160020160016101000a81548173ffffffffffffffffffffffffffffffffffffffff021916908373ffffffffffffffffffffffffffffffffffffffff1602179055506000678ac7230489e80000905060008054906101000a900473ffffffffffffffffffffffffffffffffffffffff1673ffffffffffffffffffffffffffffffffffffffff166340c10f1933836040518363ffffffff1660e01b81526004016107d592919061131d565b600060405180830381600087803b1580156107ef57600080fd5b505af1158015610803573d6000803e3d6000fd5b50505050610810336108dc565b610878576005339080600181540180825580915050600190039060005260206000200160009091909190916101000a81548173ffffffffffffffffffffffffffffffffffffffff021916908373ffffffffffffffffffffffffffffffffffffffff1602179055505b7f843af93d40addceac6932508439844b897d4df9e971db326d557e3cdaa9f3ebf8333836040516108ab93929190611346565b60405180910390a1505050565b60008054906101000a900473ffffffffffffffffffffffffffffffffffffffff1681565b600080600090505b60058054905081101561097f578273ffffffffffffffffffffffffffffffffffffffff166005828154811061091c5761091b61137d565b5b9060005260206000200160009054906101000a900473ffffffffffffffffffffffffffffffffffffffff1673ffffffffffffffffffffffffffffffffffffffff160361096c576001915050610985565b808061097790610f65565b9150506108e4565b50600090505b919050565b600081519050919050565b600082825260208201905092915050565b6000819050602082019050919050565b600073ffffffffffffffffffffffffffffffffffffffff82169050919050565b60006109e1826109b6565b9050919050565b6109f1816109d6565b82525050565b6000610a0383836109e8565b60208301905092915050565b6000602082019050919050565b6000610a278261098a565b610a318185610995565b9350610a3c836109a6565b8060005b83811015610a6d578151610a5488826109f7565b9750610a5f83610a0f565b925050600181019050610a40565b5085935050505092915050565b60006020820190508181036000830152610a948184610a1c565b905092915050565b6000604051905090565b600080fd5b600080fd5b600080fd5b600080fd5b6000601f19601f8301169050919050565b7f4e487b7100000000000000000000000000000000000000000000000000000000600052604160045260246000fd5b610b0382610aba565b810181811067ffffffffffffffff82111715610b2257610b21610acb565b5b80604052505050565b6000610b35610a9c565b9050610b418282610afa565b919050565b600067ffffffffffffffff821115610b6157610b60610acb565b5b610b6a82610aba565b9050602081019050919050565b82818337600083830152505050565b6000610b99610b9484610b46565b610b2b565b905082815260208101848484011115610bb557610bb4610ab5565b5b610bc0848285610b77565b509392505050565b600082601f830112610bdd57610bdc610ab0565b5b8135610bed848260208601610b86565b91505092915050565b600060208284031215610c0c57610c0b610aa6565b5b600082013567ffffffffffffffff811115610c2a57610c29610aab565b5b610c3684828501610bc8565b91505092915050565b6000819050919050565b610c5281610c3f565b8114610c5d57600080fd5b50565b600081359050610c6f81610c49565b92915050565b600060208284031215610c8b57610c8a610aa6565b5b6000610c9984828501610c60565b91505092915050565b610cab816109d6565b82525050565b6000602082019050610cc66000830184610ca2565b92915050565b610cd5816109d6565b8114610ce057600080fd5b50565b600081359050610cf281610ccc565b92915050565b600060208284031215610d0e57610d0d610aa6565b5b6000610d1c84828501610ce3565b91505092915050565b60008115159050919050565b610d3a81610d25565b82525050565b6000602082019050610d556000830184610d31565b92915050565b610d6481610c3f565b82525050565b6000602082019050610d7f6000830184610d5b565b92915050565b600081519050919050565b600082825260208201905092915050565b60005b83811015610dbf578082015181840152602081019050610da4565b60008484015250505050565b6000610dd682610d85565b610de08185610d90565b9350610df0818560208601610da1565b610df981610aba565b840191505092915050565b6000608082019050610e196000830187610d5b565b8181036020830152610e2b8186610dcb565b9050610e3a6040830185610d31565b610e476060830184610ca2565b95945050505050565b6000819050919050565b6000610e75610e70610e6b846109b6565b610e50565b6109b6565b9050919050565b6000610e8782610e5a565b9050919050565b6000610e9982610e7c565b9050919050565b610ea981610e8e565b82525050565b6000602082019050610ec46000830184610ea0565b92915050565b7f4e6f7420616e2061646d696e0000000000000000000000000000000000000000600082015250565b6000610f00600c83610d90565b9150610f0b82610eca565b602082019050919050565b60006020820190508181036000830152610f2f81610ef3565b9050919050565b7f4e487b7100000000000000000000000000000000000000000000000000000000600052601160045260246000fd5b6000610f7082610c3f565b91507fffffffffffffffffffffffffffffffffffffffffffffffffffffffffffffffff8203610fa257610fa1610f36565b5b600182019050919050565b7f4e487b7100000000000000000000000000000000000000000000000000000000600052602260045260246000fd5b60006002820490506001821680610ff457607f821691505b60208210810361100757611006610fad565b5b50919050565b60008190508160005260206000209050919050565b60006020601f8301049050919050565b600082821b905092915050565b60006008830261106f7fffffffffffffffffffffffffffffffffffffffffffffffffffffffffffffffff82611032565b6110798683611032565b95508019841693508086168417925050509392505050565b60006110ac6110a76110a284610c3f565b610e50565b610c3f565b9050919050565b6000819050919050565b6110c683611091565b6110da6110d2826110b3565b84845461103f565b825550505050565b600090565b6110ef6110e2565b6110fa8184846110bd565b505050565b5b8181101561111e576111136000826110e7565b600181019050611100565b5050565b601f821115611163576111348161100d565b61113d84611022565b8101602085101561114c578190505b61116061115885611022565b8301826110ff565b50505b505050565b600082821c905092915050565b600061118660001984600802611168565b1980831691505092915050565b600061119f8383611175565b9150826002028217905092915050565b6111b882610d85565b67ffffffffffffffff8111156111d1576111d0610acb565b5b6111db8254610fdc565b6111e6828285611122565b600060209050601f8311600181146112195760008415611207578287015190505b6112118582611193565b865550611279565b601f1984166112278661100d565b60005b8281101561124f5784890151825560018201915060208501945060208101905061122a565b8683101561126c5784890151611268601f891682611175565b8355505b6001600288020188555050505b505050505050565b60006040820190506112966000830185610d5b565b81810360208301526112a88184610dcb565b90509392505050565b7f416c726561647920636f6d706c65746564000000000000000000000000000000600082015250565b60006112e7601183610d90565b91506112f2826112b1565b602082019050919050565b60006020820190508181036000830152611316816112da565b9050919050565b60006040820190506113326000830185610ca2565b61133f6020830184610d5b565b9392505050565b600060608201905061135b6000830186610d5b565b6113686020830185610ca2565b6113756040830184610d5b565b949350505050565b7f4e487b7100000000000000000000000000000000000000000000000000000000600052603260045260246000fdfea2646970667358221220ec12f64b094f33f9153f31c430f195feee9c3dd2ac3274e945b97953431ebec364736f6c63430008140033",
  "linkReferences": {},
  "deployedLinkReferences": {}
}