{
  "_format": "hh-sol-artifact-1",
  "contractName": "TodoToken",
  "sourceName": "contracts/ToDoToken.sol",
  "abi": [
    {
      "inputs": [],
      "stateMutability": "nonpayable",
      "type": "constructor"
    },
    {
      "inputs": [
        {
          "internalType": "address",
          "name": "spender",
          "type": "address"
        },
        {
          "internalType": "uint256",
          "name": "allowance",
          "type": "uint256"
        },
        {
          "internalType": "uint256",
          "name": "needed",
          "type": "uint256"
        }
      ],
      "name": "ERC20InsufficientAllowance",
      "type": "error"
    },
    {
      "inputs": [
        {
          "internalType": "address",
          "name": "sender",
          "type": "address"
        },
        {
          "internalType": "uint256",
          "name": "balance",
          "type": "uint256"
        },
        {
          "internalType": "uint256",
          "name": "needed",
          "type": "uint256"
        }
      ],
      "name": "ERC20InsufficientBalance",
      "type": "error"
    },
    {
      "inputs": [
        {
          "internalType": "address",
          "name": "approver",
          "type": "address"
        }
      ],
      "name": "ERC20InvalidApprover",
      "type": "error"
    },
    {
      "inputs": [
        {
          "internalType": "address",
          "name": "receiver",
          "type": "address"
        }
      ],
      "name": "ERC20InvalidReceiver",
      "type": "error"
    },
    {
      "inputs": [
        {
          "internalType": "address",
          "name": "sender",
          "type": "address"
        }
      ],
      "name": "ERC20InvalidSender",
      "type": "error"
    },
    {
      "inputs": [
        {
          "internalType": "address",
          "name": "spender",
          "type": "address"
        }
      ],
      "name": "ERC20InvalidSpender",
      "type": "error"
    },
    {
      "anonymous": false,
      "inputs": [
        {
          "indexed": true,
          "internalType": "address",
          "name": "owner",
          "type": "address"
        },
        {
          "indexed": true,
          "internalType": "address",
          "name": "spender",
          "type": "address"
        },
        {
          "indexed": false,
          "internalType": "uint256",
          "name": "value",
          "type": "uint256"
        }
      ],
      "name": "Approval",
      "type": "event"
    },
    {
      "anonymous": false,
      "inputs": [
        {
          "indexed": true,
          "internalType": "address",
          "name": "from",
          "type": "address"
        },
        {
          "indexed": true,
          "internalType": "address",
          "name": "to",
          "type": "address"
        },
        {
          "indexed": false,
          "internalType": "uint256",
          "name": "value",
          "type": "uint256"
        }
      ],
      "name": "Transfer",
      "type": "event"
    },
    {
      "inputs": [],
      "name": "admin",
      "outputs": [
        {
          "internalType": "address",
          "name": "",
          "type": "address"
        }
      ],
      "stateMutability": "view",
      "type": "function"
    },
    {
      "inputs": [
        {
          "internalType": "address",
          "name": "owner",
          "type": "address"
        },
        {
          "internalType": "address",
          "name": "spender",
          "type": "address"
        }
      ],
      "name": "allowance",
      "outputs": [
        {
          "internalType": "uint256",
          "name": "",
          "type": "uint256"
        }
      ],
      "stateMutability": "view",
      "type": "function"
    },
    {
      "inputs": [
        {
          "internalType": "address",
          "name": "spender",
          "type": "address"
        },
        {
          "internalType": "uint256",
          "name": "value",
          "type": "uint256"
        }
      ],
      "name": "approve",
      "outputs": [
        {
          "internalType": "bool",
          "name": "",
          "type": "bool"
        }
      ],
      "stateMutability": "nonpayable",
      "type": "function"
    },
    {
      "inputs": [
        {
          "internalType": "address",
          "name": "account",
          "type": "address"
        }
      ],
      "name": "balanceOf",
      "outputs": [
        {
          "internalType": "uint256",
          "name": "",
          "type": "uint256"
        }
      ],
      "stateMutability": "view",
      "type": "function"
    },
    {
      "inputs": [],
      "name": "decimals",
      "outputs": [
        {
          "internalType": "uint8",
          "name": "",
          "type": "uint8"
        }
      ],
      "stateMutability": "view",
      "type": "function"
    },
    {
      "inputs": [
        {
          "internalType": "address",
          "name": "to",
          "type": "address"
        },
        {
          "internalType": "uint256",
          "name": "amount",
          "type": "uint256"
        }
      ],
      "name": "mint",
      "outputs": [],
      "stateMutability": "nonpayable",
      "type": "function"
    },
    {
      "inputs": [],
      "name": "name",
      "outputs": [
        {
          "internalType": "string",
          "name": "",
          "type": "string"
        }
      ],
      "stateMutability": "view",
      "type": "function"
    },
    {
      "inputs": [
        {
          "internalType": "address",
          "name": "newAdmin",
          "type": "address"
        }
      ],
      "name": "setAdmin",
      "outputs": [],
      "stateMutability": "nonpayable",
      "type": "function"
    },
    {
      "inputs": [],
      "name": "symbol",
      "outputs": [
        {
          "internalType": "string",
          "name": "",
          "type": "string"
        }
      ],
      "stateMutability": "view",
      "type": "function"
    },
    {
      "inputs": [],
      "name": "totalSupply",
      "outputs": [
        {
          "internalType": "uint256",
          "name": "",
          "type": "uint256"
        }
      ],
      "stateMutability": "view",
      "type": "function"
    },
    {
      "inputs": [
        {
          "internalType": "address",
          "name": "to",
          "type": "address"
        },
        {
          "internalType": "uint256",
          "name": "value",
          "type": "uint256"
        }
      ],
      "name": "transfer",
      "outputs": [
        {
          "internalType": "bool",
          "name": "",
          "type": "bool"
        }
      ],
      "stateMutability": "nonpayable",
      "type": "function"
    },
    {
      "inputs": [
        {
          "internalType": "address",
          "name": "from",
          "type": "address"
        },
        {
          "internalType": "address",
          "name": "to",
          "type": "address"
        },
        {
          "internalType": "uint256",
          "name": "value",
          "type": "uint256"
        }
      ],
      "name": "transferFrom",
      "outputs": [
        {
          "internalType": "bool",
          "name": "",
          "type": "bool"
        }
      ],
      "stateMutability": "nonpayable",
      "type": "function"
    }
  ],
  "bytecode": "0x60806040523480156200001157600080fd5b506040518060400160405280600981526020017f546f646f546f6b656e00000000000000000000000000000000000000000000008152506040518060400160405280600481526020017f544f444f0000000000000000000000000000000000000000000000000000000081525081600390816200008f919062000365565b508060049081620000a1919062000365565b50505033600560006101000a81548173ffffffffffffffffffffffffffffffffffffffff021916908373ffffffffffffffffffffffffffffffffffffffff1602179055506200044c565b600081519050919050565b7f4e487b7100000000000000000000000000000000000000000000000000000000600052604160045260246000fd5b7f4e487b7100000000000000000000000000000000000000000000000000000000600052602260045260246000fd5b600060028204905060018216806200016d57607f821691505b60208210810362000183576200018262000125565b5b50919050565b60008190508160005260206000209050919050565b60006020601f8301049050919050565b600082821b905092915050565b600060088302620001ed7fffffffffffffffffffffffffffffffffffffffffffffffffffffffffffffffff82620001ae565b620001f98683620001ae565b95508019841693508086168417925050509392505050565b6000819050919050565b6000819050919050565b600062000246620002406200023a8462000211565b6200021b565b62000211565b9050919050565b6000819050919050565b620002628362000225565b6200027a62000271826200024d565b848454620001bb565b825550505050565b600090565b6200029162000282565b6200029e81848462000257565b505050565b5b81811015620002c657620002ba60008262000287565b600181019050620002a4565b5050565b601f8211156200031557620002df8162000189565b620002ea846200019e565b81016020851015620002fa578190505b6200031262000309856200019e565b830182620002a3565b50505b505050565b600082821c905092915050565b60006200033a600019846008026200031a565b1980831691505092915050565b600062000355838362000327565b9150826002028217905092915050565b6200037082620000eb565b67ffffffffffffffff8111156200038c576200038b620000f6565b5b62000398825462000154565b620003a5828285620002ca565b600060209050601f831160018114620003dd5760008415620003c8578287015190505b620003d4858262000347565b86555062000444565b601f198416620003ed8662000189565b60005b828110156200041757848901518255600182019150602085019450602081019050620003f0565b8683101562000437578489015162000433601f89168262000327565b8355505b6001600288020188555050505b505050505050565b6111bf806200045c6000396000f3fe608060405234801561001057600080fd5b50600436106100b45760003560e01c8063704b6c0211610071578063704b6c021461018f57806370a08231146101ab57806395d89b41146101db578063a9059cbb146101f9578063dd62ed3e14610229578063f851a44014610259576100b4565b806306fdde03146100b9578063095ea7b3146100d757806318160ddd1461010757806323b872dd14610125578063313ce5671461015557806340c10f1914610173575b600080fd5b6100c1610277565b6040516100ce9190610d3b565b60405180910390f35b6100f160048036038101906100ec9190610df6565b610309565b6040516100fe9190610e51565b60405180910390f35b61010f61032c565b60405161011c9190610e7b565b60405180910390f35b61013f600480360381019061013a9190610e96565b610336565b60405161014c9190610e51565b60405180910390f35b61015d610365565b60405161016a9190610f05565b60405180910390f35b61018d60048036038101906101889190610df6565b61036e565b005b6101a960048036038101906101a49190610f20565b61040c565b005b6101c560048036038101906101c09190610f20565b6104e0565b6040516101d29190610e7b565b60405180910390f35b6101e3610528565b6040516101f09190610d3b565b60405180910390f35b610213600480360381019061020e9190610df6565b6105ba565b6040516102209190610e51565b60405180910390f35b610243600480360381019061023e9190610f4d565b6105dd565b6040516102509190610e7b565b60405180910390f35b610261610664565b60405161026e9190610f9c565b60405180910390f35b60606003805461028690610fe6565b80601f01602080910402602001604051908101604052809291908181526020018280546102b290610fe6565b80156102ff5780601f106102d4576101008083540402835291602001916102ff565b820191906000526020600020905b8154815290600101906020018083116102e257829003601f168201915b5050505050905090565b60008061031461068a565b9050610321818585610692565b600191505092915050565b6000600254905090565b60008061034161068a565b905061034e8582856106a4565b610359858585610739565b60019150509392505050565b60006012905090565b600560009054906101000a900473ffffffffffffffffffffffffffffffffffffffff1673ffffffffffffffffffffffffffffffffffffffff163373ffffffffffffffffffffffffffffffffffffffff16146103fe576040517f08c379a00000000000000000000000000000000000000000000000000000000081526004016103f590611063565b60405180910390fd5b610408828261082d565b5050565b600560009054906101000a900473ffffffffffffffffffffffffffffffffffffffff1673ffffffffffffffffffffffffffffffffffffffff163373ffffffffffffffffffffffffffffffffffffffff161461049c576040517f08c379a0000000000000000000000000000000000000000000000000000000008152600401610493906110cf565b60405180910390fd5b80600560006101000a81548173ffffffffffffffffffffffffffffffffffffffff021916908373ffffffffffffffffffffffffffffffffffffffff16021790555050565b60008060008373ffffffffffffffffffffffffffffffffffffffff1673ffffffffffffffffffffffffffffffffffffffff168152602001908152602001600020549050919050565b60606004805461053790610fe6565b80601f016020809104026020016040519081016040528092919081815260200182805461056390610fe6565b80156105b05780601f10610585576101008083540402835291602001916105b0565b820191906000526020600020905b81548152906001019060200180831161059357829003601f168201915b5050505050905090565b6000806105c561068a565b90506105d2818585610739565b600191505092915050565b6000600160008473ffffffffffffffffffffffffffffffffffffffff1673ffffffffffffffffffffffffffffffffffffffff16815260200190815260200160002060008373ffffffffffffffffffffffffffffffffffffffff1673ffffffffffffffffffffffffffffffffffffffff16815260200190815260200160002054905092915050565b600560009054906101000a900473ffffffffffffffffffffffffffffffffffffffff1681565b600033905090565b61069f83838360016108af565b505050565b60006106b084846105dd565b90507fffffffffffffffffffffffffffffffffffffffffffffffffffffffffffffffff8110156107335781811015610723578281836040517ffb8f41b200000000000000000000000000000000000000000000000000000000815260040161071a939291906110ef565b60405180910390fd5b610732848484840360006108af565b5b50505050565b600073ffffffffffffffffffffffffffffffffffffffff168373ffffffffffffffffffffffffffffffffffffffff16036107ab5760006040517f96c6fd1e0000000000000000000000000000000000000000000000000000000081526004016107a29190610f9c565b60405180910390fd5b600073ffffffffffffffffffffffffffffffffffffffff168273ffffffffffffffffffffffffffffffffffffffff160361081d5760006040517fec442f050000000000000000000000000000000000000000000000000000000081526004016108149190610f9c565b60405180910390fd5b610828838383610a86565b505050565b600073ffffffffffffffffffffffffffffffffffffffff168273ffffffffffffffffffffffffffffffffffffffff160361089f5760006040517fec442f050000000000000000000000000000000000000000000000000000000081526004016108969190610f9c565b60405180910390fd5b6108ab60008383610a86565b5050565b600073ffffffffffffffffffffffffffffffffffffffff168473ffffffffffffffffffffffffffffffffffffffff16036109215760006040517fe602df050000000000000000000000000000000000000000000000000000000081526004016109189190610f9c565b60405180910390fd5b600073ffffffffffffffffffffffffffffffffffffffff168373ffffffffffffffffffffffffffffffffffffffff16036109935760006040517f94280d6200000000000000000000000000000000000000000000000000000000815260040161098a9190610f9c565b60405180910390fd5b81600160008673ffffffffffffffffffffffffffffffffffffffff1673ffffffffffffffffffffffffffffffffffffffff16815260200190815260200160002060008573ffffffffffffffffffffffffffffffffffffffff1673ffffffffffffffffffffffffffffffffffffffff168152602001908152602001600020819055508015610a80578273ffffffffffffffffffffffffffffffffffffffff168473ffffffffffffffffffffffffffffffffffffffff167f8c5be1e5ebec7d5bd14f71427d1e84f3dd0314c0f7b2291e5b200ac8c7c3b92584604051610a779190610e7b565b60405180910390a35b50505050565b600073ffffffffffffffffffffffffffffffffffffffff168373ffffffffffffffffffffffffffffffffffffffff1603610ad8578060026000828254610acc9190611155565b92505081905550610bab565b60008060008573ffffffffffffffffffffffffffffffffffffffff1673ffffffffffffffffffffffffffffffffffffffff16815260200190815260200160002054905081811015610b64578381836040517fe450d38c000000000000000000000000000000000000000000000000000000008152600401610b5b939291906110ef565b60405180910390fd5b8181036000808673ffffffffffffffffffffffffffffffffffffffff1673ffffffffffffffffffffffffffffffffffffffff16815260200190815260200160002081905550505b600073ffffffffffffffffffffffffffffffffffffffff168273ffffffffffffffffffffffffffffffffffffffff1603610bf45780600260008282540392505081905550610c41565b806000808473ffffffffffffffffffffffffffffffffffffffff1673ffffffffffffffffffffffffffffffffffffffff168152602001908152602001600020600082825401925050819055505b8173ffffffffffffffffffffffffffffffffffffffff168373ffffffffffffffffffffffffffffffffffffffff167fddf252ad1be2c89b69c2b068fc378daa952ba7f163c4a11628f55a4df523b3ef83604051610c9e9190610e7b565b60405180910390a3505050565b600081519050919050565b600082825260208201905092915050565b60005b83811015610ce5578082015181840152602081019050610cca565b60008484015250505050565b6000601f19601f8301169050919050565b6000610d0d82610cab565b610d178185610cb6565b9350610d27818560208601610cc7565b610d3081610cf1565b840191505092915050565b60006020820190508181036000830152610d558184610d02565b905092915050565b600080fd5b600073ffffffffffffffffffffffffffffffffffffffff82169050919050565b6000610d8d82610d62565b9050919050565b610d9d81610d82565b8114610da857600080fd5b50565b600081359050610dba81610d94565b92915050565b6000819050919050565b610dd381610dc0565b8114610dde57600080fd5b50565b600081359050610df081610dca565b92915050565b60008060408385031215610e0d57610e0c610d5d565b5b6000610e1b85828601610dab565b9250506020610e2c85828601610de1565b9150509250929050565b60008115159050919050565b610e4b81610e36565b82525050565b6000602082019050610e666000830184610e42565b92915050565b610e7581610dc0565b82525050565b6000602082019050610e906000830184610e6c565b92915050565b600080600060608486031215610eaf57610eae610d5d565b5b6000610ebd86828701610dab565b9350506020610ece86828701610dab565b9250506040610edf86828701610de1565b9150509250925092565b600060ff82169050919050565b610eff81610ee9565b82525050565b6000602082019050610f1a6000830184610ef6565b92915050565b600060208284031215610f3657610f35610d5d565b5b6000610f4484828501610dab565b91505092915050565b60008060408385031215610f6457610f63610d5d565b5b6000610f7285828601610dab565b9250506020610f8385828601610dab565b9150509250929050565b610f9681610d82565b82525050565b6000602082019050610fb16000830184610f8d565b92915050565b7f4e487b7100000000000000000000000000000000000000000000000000000000600052602260045260246000fd5b60006002820490506001821680610ffe57607f821691505b60208210810361101157611010610fb7565b5b50919050565b7f4f6e6c792061646d696e2063616e206d696e7420746f6b656e73000000000000600082015250565b600061104d601a83610cb6565b915061105882611017565b602082019050919050565b6000602082019050818103600083015261107c81611040565b9050919050565b7f4f6e6c792061646d696e2063616e20736574206e65772061646d696e00000000600082015250565b60006110b9601c83610cb6565b91506110c482611083565b602082019050919050565b600060208201905081810360008301526110e8816110ac565b9050919050565b60006060820190506111046000830186610f8d565b6111116020830185610e6c565b61111e6040830184610e6c565b949350505050565b7f4e487b7100000000000000000000000000000000000000000000000000000000600052601160045260246000fd5b600061116082610dc0565b915061116b83610dc0565b925082820190508082111561118357611182611126565b5b9291505056fea2646970667358221220cfef1dbf3ff607ade993df3d07edb249baaa6d1da879956499aaf5310b4c625064736f6c63430008140033",
  "linkReferences": {},
  "deployedLinkReferences": {}
}